{
  "contractName": "Transactions",
  "abi": [
    {
      "anonymous": false,
      "inputs": [
        {
          "indexed": false,
          "internalType": "address",
          "name": "from",
          "type": "address"
        },
        {
          "indexed": false,
          "internalType": "address",
          "name": "receiver",
          "type": "address"
        },
        {
          "indexed": false,
          "internalType": "uint256",
          "name": "amount",
          "type": "uint256"
        },
        {
          "indexed": false,
          "internalType": "string",
          "name": "message",
          "type": "string"
        },
        {
          "indexed": false,
          "internalType": "uint256",
          "name": "timestamp",
          "type": "uint256"
        },
        {
          "indexed": false,
          "internalType": "string",
          "name": "keyword",
          "type": "string"
        }
      ],
      "name": "Transfer",
      "type": "event"
    },
    {
      "inputs": [
        {
          "internalType": "address payable",
          "name": "receiver",
          "type": "address"
        },
        {
          "internalType": "uint256",
          "name": "amount",
          "type": "uint256"
        },
        {
          "internalType": "string",
          "name": "message",
          "type": "string"
        },
        {
          "internalType": "string",
          "name": "keyword",
          "type": "string"
        }
      ],
      "name": "addToBlockchain",
      "outputs": [],
      "stateMutability": "nonpayable",
      "type": "function"
    },
    {
      "inputs": [],
      "name": "getAllTransactions",
      "outputs": [
        {
          "components": [
            {
              "internalType": "address",
              "name": "sender",
              "type": "address"
            },
            {
              "internalType": "address",
              "name": "receiver",
              "type": "address"
            },
            {
              "internalType": "uint256",
              "name": "amount",
              "type": "uint256"
            },
            {
              "internalType": "string",
              "name": "message",
              "type": "string"
            },
            {
              "internalType": "uint256",
              "name": "timestamp",
              "type": "uint256"
            },
            {
              "internalType": "string",
              "name": "keyword",
              "type": "string"
            }
          ],
          "internalType": "struct Transactions.TransferStruct[]",
          "name": "",
          "type": "tuple[]"
        }
      ],
      "stateMutability": "view",
      "type": "function",
      "constant": true
    },
    {
      "inputs": [],
      "name": "getTransactionCount",
      "outputs": [
        {
          "internalType": "uint256",
          "name": "",
          "type": "uint256"
        }
      ],
      "stateMutability": "view",
      "type": "function",
      "constant": true
    }
  ],
  "bytecode": "0x6080604052348015600f57600080fd5b50610e2f8061001f6000396000f3fe608060405234801561001057600080fd5b506004361061005e576000357c01000000000000000000000000000000000000000000000000000000009004806327506f53146100635780632e7700f014610081578063cc2d7ead1461009f575b600080fd5b61006b6100bb565b60405161007891906106f7565b60405180910390f35b6100896102fe565b6040516100969190610728565b60405180910390f35b6100b960048036038101906100b491906108f6565b610307565b005b60606001805480602002602001604051908101604052809291908181526020016000905b828210156102f557838290600052602060002090600602016040518060c00160405290816000820160009054906101000a900473ffffffffffffffffffffffffffffffffffffffff1673ffffffffffffffffffffffffffffffffffffffff1673ffffffffffffffffffffffffffffffffffffffff1681526020016001820160009054906101000a900473ffffffffffffffffffffffffffffffffffffffff1673ffffffffffffffffffffffffffffffffffffffff1673ffffffffffffffffffffffffffffffffffffffff168152602001600282015481526020016003820180546101c8906109c4565b80601f01602080910402602001604051908101604052809291908181526020018280546101f4906109c4565b80156102415780601f1061021657610100808354040283529160200191610241565b820191906000526020600020905b81548152906001019060200180831161022457829003601f168201915b5050505050815260200160048201548152602001600582018054610264906109c4565b80601f0160208091040260200160405190810160405280929190818152602001828054610290906109c4565b80156102dd5780601f106102b2576101008083540402835291602001916102dd565b820191906000526020600020905b8154815290600101906020018083116102c057829003601f168201915b505050505081525050815260200190600101906100df565b50505050905090565b60008054905090565b60016000808282546103199190610a24565b9250508190555060016040518060c001604052803373ffffffffffffffffffffffffffffffffffffffff1681526020018673ffffffffffffffffffffffffffffffffffffffff16815260200185815260200184815260200142815260200183815250908060018154018082558091505060019003906000526020600020906006020160009091909190915060008201518160000160006101000a81548173ffffffffffffffffffffffffffffffffffffffff021916908373ffffffffffffffffffffffffffffffffffffffff16021790555060208201518160010160006101000a81548173ffffffffffffffffffffffffffffffffffffffff021916908373ffffffffffffffffffffffffffffffffffffffff1602179055506040820151816002015560608201518160030190816104519190610c0a565b506080820151816004015560a08201518160050190816104719190610c0a565b5050507f416cfa4330a4565f45c2fd2dd4826a83a37443aba2ce6f79477c7355afac35fa3385858542866040516104ad96959493929190610d8a565b60405180910390a150505050565b600081519050919050565b600082825260208201905092915050565b6000819050602082019050919050565b600073ffffffffffffffffffffffffffffffffffffffff82169050919050565b6000610512826104e7565b9050919050565b61052281610507565b82525050565b6000819050919050565b61053b81610528565b82525050565b600081519050919050565b600082825260208201905092915050565b60005b8381101561057b578082015181840152602081019050610560565b60008484015250505050565b6000601f19601f8301169050919050565b60006105a382610541565b6105ad818561054c565b93506105bd81856020860161055d565b6105c681610587565b840191505092915050565b600060c0830160008301516105e96000860182610519565b5060208301516105fc6020860182610519565b50604083015161060f6040860182610532565b50606083015184820360608601526106278282610598565b915050608083015161063c6080860182610532565b5060a083015184820360a08601526106548282610598565b9150508091505092915050565b600061066d83836105d1565b905092915050565b6000602082019050919050565b600061068d826104bb565b61069781856104c6565b9350836020820285016106a9856104d7565b8060005b858110156106e557848403895281516106c68582610661565b94506106d183610675565b925060208a019950506001810190506106ad565b50829750879550505050505092915050565b600060208201905081810360008301526107118184610682565b905092915050565b61072281610528565b82525050565b600060208201905061073d6000830184610719565b92915050565b6000604051905090565b600080fd5b600080fd5b6000610762826104e7565b9050919050565b61077281610757565b811461077d57600080fd5b50565b60008135905061078f81610769565b92915050565b61079e81610528565b81146107a957600080fd5b50565b6000813590506107bb81610795565b92915050565b600080fd5b600080fd5b7f4e487b7100000000000000000000000000000000000000000000000000000000600052604160045260246000fd5b61080382610587565b810181811067ffffffffffffffff82111715610822576108216107cb565b5b80604052505050565b6000610835610743565b905061084182826107fa565b919050565b600067ffffffffffffffff821115610861576108606107cb565b5b61086a82610587565b9050602081019050919050565b82818337600083830152505050565b600061089961089484610846565b61082b565b9050828152602081018484840111156108b5576108b46107c6565b5b6108c0848285610877565b509392505050565b600082601f8301126108dd576108dc6107c1565b5b81356108ed848260208601610886565b91505092915050565b600080600080608085870312156109105761090f61074d565b5b600061091e87828801610780565b945050602061092f878288016107ac565b935050604085013567ffffffffffffffff8111156109505761094f610752565b5b61095c878288016108c8565b925050606085013567ffffffffffffffff81111561097d5761097c610752565b5b610989878288016108c8565b91505092959194509250565b7f4e487b7100000000000000000000000000000000000000000000000000000000600052602260045260246000fd5b600060028204905060018216806109dc57607f821691505b6020821081036109ef576109ee610995565b5b50919050565b7f4e487b7100000000000000000000000000000000000000000000000000000000600052601160045260246000fd5b6000610a2f82610528565b9150610a3a83610528565b9250828201905080821115610a5257610a516109f5565b5b92915050565b60008190508160005260206000209050919050565b60006020601f8301049050919050565b60008160020a8302905092915050565b600060088302610abd7fffffffffffffffffffffffffffffffffffffffffffffffffffffffffffffffff82610a7d565b610ac78683610a7d565b95508019841693508086168417925050509392505050565b6000819050919050565b6000610b04610aff610afa84610528565b610adf565b610528565b9050919050565b6000819050919050565b610b1e83610ae9565b610b32610b2a82610b0b565b848454610a8d565b825550505050565b600090565b610b47610b3a565b610b52818484610b15565b505050565b5b81811015610b7657610b6b600082610b3f565b600181019050610b58565b5050565b601f821115610bbb57610b8c81610a58565b610b9584610a6d565b81016020851015610ba4578190505b610bb8610bb085610a6d565b830182610b57565b50505b505050565b60008160020a8304905092915050565b6000610be160001984600802610bc0565b1980831691505092915050565b6000610bfa8383610bd0565b9150826002028217905092915050565b610c1382610541565b67ffffffffffffffff811115610c2c57610c2b6107cb565b5b610c3682546109c4565b610c41828285610b7a565b600060209050601f831160018114610c745760008415610c62578287015190505b610c6c8582610bee565b865550610cd4565b601f198416610c8286610a58565b60005b82811015610caa57848901518255600182019150602085019450602081019050610c85565b86831015610cc75784890151610cc3601f891682610bd0565b8355505b6001600288020188555050505b505050505050565b610ce581610507565b82525050565b6000610d06610d01610cfc846104e7565b610adf565b6104e7565b9050919050565b6000610d1882610ceb565b9050919050565b6000610d2a82610d0d565b9050919050565b610d3a81610d1f565b82525050565b600082825260208201905092915050565b6000610d5c82610541565b610d668185610d40565b9350610d7681856020860161055d565b610d7f81610587565b840191505092915050565b600060c082019050610d9f6000830189610cdc565b610dac6020830188610d31565b610db96040830187610719565b8181036060830152610dcb8186610d51565b9050610dda6080830185610719565b81810360a0830152610dec8184610d51565b905097965050505050505056fea2646970667358221220cb4b34017f917219ac38501222e31471fe537db71f089d2dedab58cf5cd88dbf64736f6c634300081c0033",
  "immutableReferences": {},
  "source": "// SPDX-License-Identifier: UNLICENSED\r\npragma solidity ^0.8.28;\r\n\r\ncontract Transactions {\r\n    uint256 transactionCount;\r\n\r\n    event Transfer(address from, address receiver, uint amount, string message, uint256 timestamp, string keyword);\r\n\r\n    struct TransferStruct {\r\n        address sender;\r\n        address receiver;\r\n        uint amount;\r\n        string message;\r\n        uint256 timestamp;\r\n        string keyword;\r\n    }\r\n\r\n    TransferStruct[] transactions;\r\n\r\n    function addToBlockchain(address payable receiver, uint amount, string memory message, string memory keyword) public{\r\n        transactionCount += 1;\r\n        transactions.push(TransferStruct(msg.sender, receiver, amount, message, block.timestamp, keyword));\r\n\r\n        emit Transfer(msg.sender, receiver, amount, message, block.timestamp, keyword);\r\n    }\r\n\r\n    function getAllTransactions() public view returns (TransferStruct[] memory){\r\n        return transactions;\r\n    }\r\n\r\n    function getTransactionCount() public view returns (uint256){\r\n        return transactionCount;\r\n    }\r\n}",
  "sourcePath": "D:\\Tuto\\Project\\BLOCKCHAIN-WEB3\\eth-exchange\\smart_contract\\contracts\\Transactions.sol",
  "compiler": {
    "name": "solc",
    "version": "0.8.28+commit.7893614a.Emscripten.clang"
  },
  "schemaVersion": "3.4.16",
  "updatedAt": "2025-02-19T13:14:40.126Z",
  "networkType": "ethereum",
  "devdoc": {
    "kind": "dev",
    "methods": {},
    "version": 1
  },
  "userdoc": {
    "kind": "user",
    "methods": {},
    "version": 1
  }
}